:100000000C943A000C94D6010C94D6010C94D601B1
:100010000C94D6010C94D6010C94D6010C94D60104
:100020000C94D6010C94D6010C94D6010C94D601F4
:100030000C94D6010C94D6010C94D6010C94D601E4
:100040000C94D6010C94D6010C94D6010C94D601D4
:100050000C94D6010C94D6010C94D6010C94D601C4
:100060000C9426010C94D601010001010003BA0191
:100070000101028011241FBECFEFD8E0DEBFCDBF4B
:10008000E8E6F0E040E017C0B591A59135912591E3
:10009000059107FD0CC095918591EF01F92FE82F8F
:1000A00005900D92A217B307D9F7FE0104C01D9267
:1000B000A217B307E1F7E437F40731F70E946400B1
:0800C0000C94BA01F894FFCF83
:1000C80084B1806284B98AB184608AB985B18F7D30
:1000D80085B98BB18B7F8BB980E40E94C50168E03C
:1000E80070E080E00E9465010E94CF0178948091C1
:1000F8000101823571F480E090E00E948E012FEFBB
:100108008BE792E9215080409040E1F700C0000061
:1001180014C0823471F484EB90E00E948E012FEFBA
:100128008BE792E9215080409040E1F700C0000041
:1001380004C08AE590E00E948E0162E080E00E949F
:10014800D000C82F64E083E00E94D00021E0C230D4
:1001580008F020E091E0823008F490E0922B49F01A
:100168001092000185B18F7D85B98BB18B7F8BB9DA
:10017800BECF823038F481E08093000185B180627F
:1001880085B9B5CFC23008F4B2CF81E080930001C1
:080198008BB184608BB9ABCF81
:1001A00045B121E030E0F90102C0EE0FFF1F8A9552
:1001B000E2F7CF019E2F9095492345B9FAE0FA95D1
:1001C000F1F700C025B1822B85B925E32A95F1F717
:1001D000000085B1982395B983B1262F90E0062EB3
:1001E00002C0959587950A94E2F780FFF5CF40E02D
:1001F00050E006C04F5F5F4F85E08A95F1F7000041
:1002000083B190E0022E02C0959587950A94E2F79B
:1002100080FDF0CF87E591E0489F9001499F300D28
:10022000589F300D112436952795329522952F70C1
:1002300023273F702327A7E4B3E00E94AB019695E4
:0C0240008795969587959695879508956B
:10024C001F920F920FB60F9211248F93EF93FF937F
:10025C008091B9008C7F803899F028F4803651F069
:10026C00803741F01FC0883AA9F0883B99F080395B
:10027C00C9F406C0ECEBF0E080818068808317C085
:10028C008091BB0080930101ECEBF0E080818068F1
:10029C0080830DC0809100018093BB0085EC80931E
:1002AC00BC0005C0ECEBF0E0808180698083FF919D
:0E02BC00EF918F910F900FBE0F901F9018952D
:1002CA0094B1926094B9882331F0E0E8F0E080813B
:1002DA00806C808305C0E0E8F0E0808180688083DC
:1002EA00E1E8F0E0808188618083E0E8F0E08081E5
:1002FA008260808380E29EE49093870080938600E8
:10030A006830710529F4E1E8F0E080818260808339
:02031A00089544
:10031C00009739F48CEF98E09093890080938800D3
:10032C0008958A35910539F480EF9AE0909389000D
:10033C00809388000895843B910531F484EE9CE011
:0A034C0090938900809388000895C3
:10035600A29FB001B39FC001A39F700D811D112400
:0E036600911DB29F700D811D1124911D0895EF
:10037400EC010E94DB010E94DA01CE010E94DC0143
:06038400CE010E94D80129
:10038A0097B19F7C97B9880F8093BA0085E48093D0
:04039A00BC00089506
:0E039E0084B1896084B984B18B7E84B90895DE
:0403AC000C940000AD
:0403B0000E94620045
:0203B4000895AA
:0203B6000895A8
:0203B8000895A6
:0103BA000240
:00000001FF
